:020000040800F2
:10000000380400209D010008CD1C0008CF1C00080A
:10001000D31C0008D71C0008DB1C000800000000EF
:10002000000000000000000000000000DF1C0008CD
:10003000E11C000800000000E31C00081315000884
:10004000B7010008B7010008B7010008B7010008B0
:10005000B7010008B7010008B7010008B7010008A0
:10006000B7010008B7010008B7010008B701000890
:10007000B7010008B7010008B7010008B701000880
:10008000B7010008B7010008B7010008B701000870
:10009000B7010008B7010008B7010008B701000860
:1000A000B7010008B7010008B7010008B701000850
:1000B000B7010008B7010008B7010008B701000840
:1000C000B7010008B7010008B7010008B701000830
:1000D000B7010008B7010008B7010008B701000820
:1000E000B7010008B7010008B7010008B701000810
:1000F000B7010008B7010008B7010008B701000800
:10010000B7010008B7010008B7010008B7010008EF
:10011000B7010008B7010008B7010008B7010008DF
:10012000B7010008B7010008B7010008B7010008CF
:10013000B7010008B7010008B7010008B7010008BF
:10014000B7010008B7010008B7010008B7010008AF
:10015000B7010008B7010008B7010008B70100089F
:10016000B7010008B7010008B7010008B70100088F
:10017000B7010008B7010008B7010008B70100087F
:10018000B7010008B7010008DFF80CD001F0AAFDA4
:1001900000480047B1120008380400200648804794
:1001A00006480047FEE7FEE7FEE7FEE7FEE7FEE75C
:1001B000FEE7FEE7FEE7FEE79B0200088901000874
:1001C0000CB50020019000907548006840F4803024
:1001D0007349086000BF7248006800F40030009066
:1001E0000198401C0190009818B90198B0F5A04FF3
:1001F000F1D16B48006810F4003F02D0012000905C
:1002000001E0002000900098012845D1644840306A
:10021000006840F0805062494031086061480068E1
:1002200040F440405F4908605D48083000685C4920
:10023000083108600846006840F40040086008463D
:10024000006840F4A05008605748091F0860081F64
:10025000006840F08070091F086000BF50480068C7
:1002600010F0007FFAD040F20570504908604C4809
:100270000830006820F0030049490831086008464A
:10028000006840F00200086000BF45480830006880
:1002900000F00C000828F8D10CBD10B544480068E7
:1002A00040F47000424908603D48006840F0010099
:1002B0003B49086000203A49083108603848006826
:1002C0003C490840364908603B48091D0860081F42
:1002D000006820F48020091F0860002030490C319C
:1002E0000860FFF76DFF4FF000603149803908600A
:1002F00010BD70B500200022022300240221284DE9
:1003000008352D6805F00C0020B1042806D0082817
:1003100034D107E0294D2A4E356033E0294D284E6F
:1003200035602FE01E4D2D1D2D68C5F380541C4DEA
:100330002D1D2D6805F03F0154B1224DB5FBF1F59F
:10034000174E361D3668C6F3881605FB06F209E01F
:100350001A4DB5FBF1F5124E361D3668C6F38816F8
:1003600005FB06F20E4D2D1D2D68C5F301456D1CD4
:100370006B00B2FBF3F5124E356003E00F4D104EEB
:10038000356000BF00BF064D08352D68C5F3031565
:100390000D4E705D0A4D2D68C540094E356070BD2B
:1003A000003802400070004008544007003C024002
:1003B00088ED00E0FFFFF6FE103000240024F4007A
:1003C0000000002000127A000400002030B943F23F
:1003D000DB014FF0204242F8201005E043F2D20149
:1003E0004FF0204242F820106FF07042411C4FF055
:1003F000204343F8212011461A4602EB8002C2F83E
:1004000004117047D0E901121143C2681143026917
:1004100011434269114382691143C2691143026A5F
:100420001143426A1143826A1143C26A1143026B4B
:1004300011434FF02043026843F8221081680829D5
:1004400008D11A46016852F8211041F040010268B3
:1004500043F82210416B0968426B526841EA02116D
:10046000426B926841EA0221426B928941EA024161
:10047000426B128A41EA0251426B127D41EA0261EB
:10048000426B926911430268521C4FF0204343F8BB
:100490002210C16AB1F5804F1AD1816B0968826B55
:1004A000526841EA0211826B926841EA0221826B32
:1004B000128A41EA0251826B127D41EA0261826B2B
:1004C00092691143026803EB8202C2F8041108E04A
:1004D0006FF070414FF02043026803EB8202C2F8D4
:1004E00004117047002101600221416000218160F8
:1004F000C160016141618161C16101624FF480515C
:100500004162490081620021C16201630F21426B97
:100510001160426B5160FF21426B91600F21426B71
:10052000D160426B1161426B51610021426B91615C
:100530000F21826B1160826B5160FF21826B916091
:100540000F21826BD160826B1161826B516100213E
:10055000826B9161704751B14FF0204252F82020D8
:1005600042F001024FF0204343F8202009E04FF011
:10057000204252F82020F84B1A404FF0204343F815
:100580002020704710280AD118214FF02042116610
:10059000402151664FF0FC319166D16610E0182180
:1005A000EE4A11604FF040014FF02042C2F8841033
:1005B0004FF0FC31EA4A11604FF02042C2F88C1033
:1005C000704730B5002100220023446844F008043D
:1005D00085682C43C5682C4305692C43456944EA6A
:1005E0004524856944EA4531C4692468C5696D6854
:1005F00044EA0524C5692D8944EA0544C5692D7B73
:1006000044EA0562046A2468056A6D6844EA0524C0
:10061000056A2D8944EA0544056A2D7B44EA056391
:100620000468102C05D14FF020442166A266E366D1
:1006300007E0CA4C21604FF02044C4F88820C94C20
:10064000236030BD10210160002141608160C160E4
:10065000016141618161FC21C2691160C26951601F
:10066000C2699160C269D160026A1160026A516018
:10067000026A9160026AD160704799B1102808D16E
:100680004FF02042126E42F004024FF020431A66EF
:100690001DE0B24A126842F004024FF02043C3F852
:1006A000802014E0102809D14FF02042126EAA4B8E
:1006B000DB1E1A404FF020431A6608E0A74A126872
:1006C000A94B02EA03024FF02043C3F88020704791
:1006D00099B1102808D14FF02042126E42F040022A
:1006E0004FF020431A661DE09C4A126842F0400217
:1006F0004FF02043C3F8802014E0102809D14FF0B8
:100700002042126E984B3C3B1A404FF020431A6631
:1007100008E0924A1268954B02EA03024FF0204328
:10072000C3F88020704701460020102903D14FF004
:100730002042506F01E08E4A1068704718208D49A2
:1007400008604FF000004FF02041C1F8A4004FF0C6
:10075000FC308949086001F10401086001F10401DD
:1007600008607047016841F01001426841EA422187
:10077000826841EA42317F4A1160C1680968C268F3
:10078000526841EA0221C268128941EA0241C26804
:10079000127B41EA0261784A1160016909680269C5
:1007A000526841EA02210269128941EA0241026962
:1007B000127B41EA0261714A11604169096842692C
:1007C000526841EA02214269128941EA02414269C2
:1007D000127B41EA02614FF02042C2F8B01070472C
:1007E0000021016041608160FC21C2681160C26823
:1007F0005160C2689160C268D1600269116002698B
:100800005160026991600269D16042691160426978
:100810005160426991604269D160704740B1554969
:10082000096841F004014FF02042C2F8A01008E02E
:10083000504909684C4A01EA02014FF02042C2F8CF
:10084000A010704710B5F2B1102807D14FF0204327
:100850005B6E0B434FF02044636632E0B0F5807F5F
:1008600008D1474B1B6843EA01034FF02044C4F80A
:10087000843026E0434B1B6843EA01034FF02044D9
:10088000C4F8A4301DE0102807D14FF020435B6E60
:100890008B434FF02044636613E0B0F5807F08D1AE
:1008A000374B1B6823EA01034FF02044C4F884301F
:1008B00007E0344B1B6823EA01034FF02044C4F8DF
:1008C000A43010BD10B5024600200023102A03D129
:1008D0004FF02044636E07E0B2F5807F02D1284CD0
:1008E000236801E0274C23680B4201D0012000E07F
:1008F000002010BD102807D14FF02042526E8A43CD
:100900004FF020435A6613E0B0F5807F08D11C4AAF
:10091000126822EA01024FF02043C3F8842007E066
:10092000184A126822EA01024FF02043C3F8A420BB
:10093000704770B502460020002300240025102ACD
:1009400003D14FF02046736E20E0B2F5807F1BD1BB
:100950000B4E33681AE00000FEFF0F00800000A07D
:10096000880000A08C0000A0FBFF0F00BFFF0F005D
:10097000940000A0A00000A0A80000A0AC0000A06F
:10098000840000A0A40000A0154E336803EA01040F
:1009900003EAD10514B10DB1012000E0002070BDC3
:1009A000102808D14FF02042526E22EAD1024FF0B7
:1009B00020435A6613E0B0F5807F08D1094A1268D7
:1009C00022EAD1024FF02043C3F8842007E0044A12
:1009D000126822EAD1024FF02043C3F8A4207047E6
:1009E000A40000A0840000A010B5044698488442EA
:1009F00008D10121084600F086FB0021012000F00B
:100A000082FB76E09348844208D10121022000F065
:100A10007AFB0021022000F076FB6AE08E488442D7
:100A200008D10121042000F06EFB0021042000F019
:100A30006AFB5EE08948844208D10121082000F069
:100A400062FB0021082000F05EFB52E084488442F3
:100A500008D10121102000F056FB0021102000F0E9
:100A600052FB46E07F48844208D10121202000F05B
:100A70004AFB0021202000F046FB3AE07A488442FD
:100A800008D10121402000F03EFB0021402000F071
:100A90003AFB2EE07548844208D10121802000F005
:100AA00032FB0021802000F02EFB22E070488442BF
:100AB00008D10121801500F026FB0021A01500F0CF
:100AC00022FB16E06B48844208D10121401500F05A
:100AD0001AFB0021601500F016FB0AE0664884420C
:100AE00007D10121001500F00EFB0021201500F0B8
:100AF0000AFB10BDF0B50A4600210023002400BF08
:100B00003DE0012505FA01F3156805EA03049C425E
:100B100034D105684F000326BE40B5430560157902
:100B20004E00B5400668354305601579012D02D0A9
:100B30001579022D16D185684F000326BE40B543B6
:100B4000856055794E00B5408668354385604568B7
:100B500001268E40B5434560456896798E40B6B211
:100B600035434560C5684F000326BE40B543C560A8
:100B7000D5794E00B540C6683543C560491C10297B
:100B8000BFD3F0BD4FF6FF710160002101714171CB
:100B90008171C171704708B54FF480320092009A9C
:100BA0000A430092009AC261C161009AC261C2699F
:100BB0000092C269009208BD0246002013690B42F0
:100BC00001D0012000E0002070470146086980B292
:100BD00070470246002053690B4201D0012000E01B
:100BE000002070470146486980B270470183704712
:100BF000418370470AB1018300E04183704741613E
:100C0000704742694A4042617047F0B500230024B2
:100C10004D07ED0E02FA05F3CE1000F1200555F850
:100C200026504E07F70E0F26BE40B543CF1000F1F9
:100C3000200646F82750CE1000F1200555F8265022
:100C400045EA0304CE1000F1200545F82640F0BD2A
:100C5000000002400004024000080240000C024074
:100C6000001002400014024000180240001C024024
:100C7000002002400024024000280240F948006899
:100C800040F00100F74908600020F649083108608B
:100C9000F4480068F4490840F2490860F348091D27
:100CA0000860F348EF4984310860F0481038091DA6
:100CB0000860EC48006820F48020EA4908600020C1
:100CC000E8490C310860E7498C3108607047002121
:100CD000E44A921C117011460870704710B5014625
:100CE0000022002300204A11012A02D1DD4C236892
:100CF00008E0022A03D1DB4C7034236802E0D94CAF
:100D00007434236801F01F02012494401C4201D076
:100D1000012000E0002010BD38B500200090002424
:100D2000002500BF3120FFF7D9FF05460098401C81
:100D300000900098B0F5A04F01D0002DF2D03120E6
:100D4000FFF7CCFF08B1012400E00024204638BDA5
:100D500001460020C34A106820F0F80040EAC100B4
:100D600010607047C349086070470021BD4A703267
:100D700011701170012802D004280AD104E0012169
:100D8000B84A7032117005E00521B64A7032117010
:100D900000E000BF00BF7047B7490860704770B5FA
:100DA000049C41EA82150126C6EB530645EA064536
:100DB000054345EA0465AB4E361D356070BDAD494F
:100DC00008667047820142EA0172A64B84331A60BA
:100DD0007047A8498866704710B5830143EA0163EC
:100DE00043EA02739F4C8834236010BDA149086711
:100DF0007047A049C864704702460020994B0833E9
:100E0000186820F0EC6042EA01031843954B083360
:100E10001860704702460020924B0833186820F093
:100E2000784042EA010318438E4B0833186070473C
:100E3000014600208B4A0832106820F00300084366
:100E40001060704787480830006800F00C00704759
:100E500001460020834A0832106820F0F000084361
:100E600010607047014600207E4A0832106820F466
:100E7000E05008431060704701460020794A08326C
:100E8000106820F4604040EAC10010607047F0B57F
:100E9000002100220024022500260223714F08377A
:100EA0003F6807F00C0121B1042905D0082937D18A
:100EB00005E0724F076036E0714F076033E0694F1D
:100EC0003F1D3F68C7F38056664F3F1D3F6807F0E0
:100ED0003F036EB16A4FB7FBF3F7DFF888C10CF13F
:100EE000040CDCF800C0CCF3881C07FB0CF40CE00D
:100EF000624FB7FBF3F7DFF86CC10CF1040CDCF8C0
:100F000000C0CCF3881C07FB0CF4564F3F1D3F6814
:100F1000C7F301477F1C7D00B4FBF5F7076002E0D3
:100F2000564F076000BF00BF4E4F08373F6807F0BD
:100F3000F0010909534F7A5C0768D7404760494F71
:100F400008373F6807F4E051890A4E4F7A5C4768DA
:100F5000D7408760434F08373F6807F46041490B2B
:100F6000484F7A5C4768D740C760F0BD002100F465
:100F70004072B2F5407F0AD13A4A0832116821F432
:100F8000F811414A02401143364A08321160354A8D
:100F900070321268C0F30B031A43324B70331A607D
:100FA0007047354944390860704733494039086013
:100FB000704736490860704701460020294A8C3244
:100FC000106820F01F004A1E1043264A8C32106021
:100FD000704701460020234A8C32106820F4F850F4
:100FE0004A1E40EA02201F4A8C32106070470146B8
:100FF00000201C4A8C32106820F440100843106016
:10100000704701460020174A8C32106820F44000D7
:1010100008431060704701460020124A8C32106865
:1010200020F4403008431060704719490860704749
:1010300039B10C4A3032126802430A4B30331A601D
:1010400006E0084A303212688243064B30331A6099
:101050007047F9B1034A343212680243014B34330A
:101060001A601CE000380240FFFFF6EA103000244E
:101070000030002000004742800E47420024F40068
:1010800000127A0014000020FFFCFF0F5C014742B1
:10109000E0114742854A12688243844B1A607047C8
:1010A00039B1824A121D12680243804B1B1D1A601F
:1010B00006E07E4A121D126882437C4B1B1D1A609B
:1010C000704739B1794A0C3212680243774B0C33BE
:1010D0001A6006E0754A0C3212688243734B0C3377
:1010E0001A60704739B1714A1032126802436F4B6F
:1010F00010331A6006E06D4A1032126882436B4B5F
:1011000010331A60704739B1684A243A12680243B2
:10111000664B243B1A6006E0644A243A1268824314
:10112000624B243B1A60704739B1604A203A12681A
:1011300002435E4B203B1A6006E05C4A203A12688C
:1011400082435A4B203B1A60704739B1574A1C3AC8
:1011500012680243554B1C3B1A6006E0534A1C3A86
:1011600012688243514B1C3B1A60704739B14F4A99
:10117000143A126802434D4B143B1A6006E04B4A86
:10118000143A12688243494B143B1A60704739B1D4
:10119000464A103A12680243444B103B1A6006E07C
:1011A000424A103A12688243404B103B1A60704723
:1011B00039B13E4A1C32126802433C4B1C331A6060
:1011C00006E03A4A1C3212688243384B1C331A60DC
:1011D000704739B1354A203212680243334B20330D
:1011E0001A6006E0314A2032126882432F4B2033C6
:1011F0001A60704739B12D4A2432126802432B4BD2
:1012000024331A6006E0294A243212688243274BAD
:1012100024331A60704739B1244A2C3212680243D1
:10122000224B2C331A6006E0204A2C32126882438B
:101230001E4B2C331A60704739B11C4A3032126889
:1012400002431A4B30331A6006E0184A30321268F3
:101250008243164B30331A60704739B1134A273A2C
:1012600012780243114B273B1A7006E00F4A273AC7
:10127000127882430D4B273B1A7070470B48403061
:10128000006840F0807009494031086070470146AD
:101290000020064A283A12680A4201D0012000E0E4
:1012A00000207047014926390870704734380240E1
:1012B0001CB500F043FA9A4800684FF47A72B0FB0C
:1012C000F2F1481EB0F1807F00D31BE0481E4FF0C2
:1012D000E022506150170F22002807DA13071D0E75
:1012E000904B00F00F04241F1D5503E013071C0E44
:1012F0008D4B1C5400BF00204FF0E022906107206E
:10130000106100BF002000F021FB01204FF6FF71AB
:101310001E231A46CDE900108448018884480088BD
:1013200000F09EFCF4E08348006883490968401A95
:101330000528F7D98148007868B97D480088401CA5
:101340007B49088008460088B0F5917F0ED10120C6
:101350007A4908700AE076480088401E744908807F
:101360000846008810B90020744908707448007855
:1013700060B96E480088401C6C49088008460088A7
:10138000D2280ED101206E4908700AE06748008813
:10139000401E664908800846008810B90020684948
:1013A000087066480078002855D16548007840BB31
:1013B000002000905D4A0190128812B95B4A1288A1
:1013C00002E05A4A1288521E91B2594A128812B942
:1013D000574A128802E0564A1288521E90B21E23C3
:1013E0001A4600F03DFC01204FF6FF711E231A46FD
:1013F000CDE900104D4801884D48008800F030FCD0
:1014000082E000200090494A01901288F02A02D11F
:10141000464A128802E0454A1288521C91B2444A58
:10142000128812B9424A128802E0414A1288521EBA
:1014300090B21E231A4600F013FC01204FF6FF71F4
:101440001E231A46CDE90010384801883848008824
:1014500000F006FC58E03A48007850BB00200090AD
:10146000324A0190128812B9304A128802E02F4A9B
:101470001288521E91B22E4A1288B2F5A07F02D174
:101480002B4A128802E02A4A1288521C90B21E236C
:101490001A4600F0E5FB01204FF6FF711E231A46A5
:1014A000CDE90010214801882148008800F0D8FBD0
:1014B0002AE0002000901D4A01901288F02A02D1F3
:1014C0001A4A128802E0194A1288521C91B2184A2C
:1014D0001288B2F5A07F02D1154A128802E0144AA0
:1014E0001288521C90B21E231A4600F0B9FB01204C
:1014F0004FF6FF711E231A46CDE900100B480188F4
:101500000B48008800F0ACFB0A4800680A490860F4
:1015100009E708480068401C064908607047000059
:101520000000002018ED00E000E400E026000020AC
:1015300024000020300000202C0000202800002083
:10154000290000201CB501215820FFF771FD012161
:101550000846FFF7A5FD0C220021F848FFF755FBD0
:101560000C220121F548FFF750FB0C220421F3481F
:10157000FFF74BFB0C220521F048FFF746FB0C223E
:101580000821EE48FFF741FB0C220921EB48FFF749
:101590003CFB0C220A21E948FFF737FB0C220E2105
:1015A000E648FFF732FB0C220F21E448FFF72DFB42
:1015B0004CF23370009002208DF804008DF8050085
:1015C00000208DF806008DF807006946DB48FFF71C
:1015D00091FA0C220221DA48FFF717FB0C220721AF
:1015E000D748FFF712FB0C220821D548FFF70DFB67
:1015F0000C220921D248FFF708FB0C220A21D0480F
:10160000FFF703FB0C220B21CD48FFF7FEFA0C225B
:101610001146CB48FFF7F9FA0C220D21C848FFF715
:10162000F4FA0C220E21C648FFF7EFFA0C220F2124
:10163000C348FFF7EAFA4FF68470009002208DF855
:1016400004008DF8050000208DF806008DF80700D5
:101650006946BB48FFF74EFA0C220521B948FFF74F
:10166000D4FA0C221146B748FFF7CFFA0C220D210D
:10167000B448FFF7CAFA43F22000009002208DF828
:1016800004008DF8050000208DF806008DF8070095
:101690006946AC48FFF72EFA1CBD00B597B006208E
:1016A0000890002009900A9010200B9000200C90C8
:1016B0000E900F9010904FF48050119000201290D7
:1016C0000D901390149001A815900F200190002008
:1016D00002900F2003900020049005900690079040
:1016E00001A8169008A8FEF78DFE01210620FEF73E
:1016F00032FF17B000BD002109E0002201E0531CB9
:101700009AB240F275439A42F9DB4B1C99B281427E
:10171000F3DB704770B504460D462E462546C6F1EC
:10172000EF0084B22146202000F008FB294621204A
:1017300000F004FB222000F0FDFA70BD10B5824CD1
:10174000FFF700FFFFF7A9FF00BF2000A4F101048D
:10175000FBD11021E72000F0F1FA0121002000F078
:10176000EDFA4FF48071012000F0E8FA4FF4E061E7
:10177000022000F0E3FA41F22801032000F0DEFA33
:101780000021042000F0DAFA40F20721082000F0DE
:10179000D5FA0021092000F0D1FA00210A2000F03A
:1017A000CDFA01210C2000F0C9FA00210D2000F033
:1017B000C5FA00210F2000F0C1FA0021102000F02E
:1017C000BDFA0721112000F0B9FA0021122000F023
:1017D000B5FA0021132000F0B1FA3220FFF78BFF99
:1017E00041F29051102000F0A9FA40F22721112077
:1017F00000F0A4FA3220FFF77EFF9C21122000F0B7
:101800009DFA3220FFF777FF4FF4C851132000F004
:1018100095FA2321292000F091FA0E212B2000F0C7
:101820008DFA3220FFF767FF3220FFF764FF0721B0
:10183000302000F083FA40F20771312000F07EFA88
:101840000621322000F07AFA40F20471352000F0CF
:1018500075FA41F60471362000F070FA0421372041
:1018600000F06CFA0021382000F068FA40F20671AE
:10187000392000F063FA40F201713C2000F05EFA7A
:101880000F213D2000F05AFA3220FFF734FF0021EB
:10189000502000F053FAEF21512000F04FFA0021C0
:1018A000522000F04BFA40F23F11532000F046FA6C
:1018B0004FF42741602000F041FA0121612000F03F
:1018C0003DFA00216A2000F039FA0021802000F062
:1018D00035FA0021812000F031FA0021822000F049
:1018E0002DFA0021832000F029FA0021842000F045
:1018F00025FA0021852000F021FA1021902000F027
:101900001DFA4FF4C061922000F018FA03219320D1
:1019100000F014FA4FF48871952000F00FFA0021BE
:10192000972000F00BFA0021982000F007FA40F20F
:101930003311072000F002FA10BD0000000C024035
:101940000010024000180240FFFF1F0070B505465E
:1019500000210846FFF7DEFE002403E0284600F0E1
:10196000E3F9641CB4F5963FF8D370BD70B5064634
:101970000C461546B6F5A07F01DAF02C00DB70BDF1
:1019800021463046FFF7C6FE2946222000F0D6F950
:1019900000BFF4E72DE9F04180460C4615461E468F
:1019A000601987B2F02F00DDF02700BF32462146D4
:1019B0004046FFF7DBFF601C84B2BC42F6DDBDE8A9
:1019C000F0812DE9F0410446884615461E4660190F
:1019D00087B2B7F5A07F01DD4FF4A07700BF324694
:1019E00041462046FFF7C2FF601C84B2BC42F6DDD0
:1019F000BDE8F0812DE9F05F04460D4691469A4618
:101A0000DDF828B04C4503DD0FFA89F7A146BCB2DA
:101A1000554503DD0FFA8AF7AA46BDB2A9EB0400CB
:101A20000FFA80F8AAEB050006B2B8F1000F0BD14F
:101A300000BF5A4629462046FFF798FF681C85B22A
:101A4000AA45F6DABDE8F09F56B900BF5A462946C6
:101A50002046FFF78BFF601C84B2A145F6DAF1E760
:101A6000B04521DDC8EB460007B215E05A462946CD
:101A70002046FFF77BFF601C84B2002F08DD681C46
:101A800085B27000022101FB1800384407B203E060
:101A9000022000FB067007B24C45E7D15A462946A2
:101AA0002046FFF763FF20E0C6EB480007B215E0D1
:101AB0005A4629462046FFF759FF681C85B2002F79
:101AC00008DD601C84B27000022101FB180038445C
:101AD00007B203E0022000FB067007B25545E7D1CC
:101AE0005A4629462046FFF741FF00BFAAE72DE9E5
:101AF000F84F06460F4691469846DDF828B0002478
:101B00000FFA89F5C9F101000FFA80FA00BFBBF1A5
:101B1000000F50D007EB050C1FFA8CF306EB040CFA
:101B20001FFA8CF207EB050C1FFA8CF1A6EB040CE4
:101B30001FFA8CF0CDF80080FFF75CFFA7EB050CD7
:101B40001FFA8CF306EB040C1FFA8CF2A7EB050CC2
:101B50001FFA8CF1A6EB040C1FFA8CF0CDF8008074
:101B6000FFF748FF07EB040C1FFA8CF306EB050C9C
:101B70001FFA8CF207EB040C1FFA8CF1A6EB050C94
:101B80001FFA8CF0CDF80080FFF734FFA7EB040CB0
:101B90001FFA8CF306EB050C1FFA8CF2A7EB040C72
:101BA0001FFA8CF1A6EB050C1FFA8CF0CDF8008023
:101BB000FFF720FF37E0EA1991B2A21990B242462E
:101BC000FFF7D4FEE21991B2AA1990B24246FFF78C
:101BD000CDFEEA1991B2321B90B24246FFF7C6FE23
:101BE000E21991B2721B90B24246FFF7BFFE3A1B58
:101BF00091B2AA1990B24246FFF7B8FE7A1B91B291
:101C0000A21990B24246FFF7B1FE7A1B91B2321B85
:101C100090B24246FFF7AAFE3A1B91B2721B90B2F5
:101C20004246FFF7A3FEBAF1000F08DA2046611C16
:101C30000CB24000C01C50440FFA80FA0BE0204662
:101C4000611C0CB229466A1E15B2401A4000401DA4
:101C500050440FFA80FAAC427FF759AFBDE8F88FD5
:101C60002DE9F04704460F4615461E46DDE9088972
:101C7000A246B9F1000F0DD007E04346324639467F
:101C80002046FFF787FE601C84B20AEB0500A042E5
:101C9000F3DA19E043462A4639462046FFF791FE1B
:101CA0004346324639462046FFF774FEB81981B2E2
:101CB00043462A462046FFF784FE611988B2434610
:101CC00032463946FFF766FEBDE8F087704700BF31
:101CD000FEE700BFFEE700BFFEE700BFFEE770477C
:101CE00070477047064C074D06E0E06840F001037E
:101CF00094E8070098471034AC42F6D3FEF748FA50
:101D0000501D0008701D000802E008C8121F08C11D
:101D1000002AFAD170477047002001E001C1121F6C
:101D2000002AFBD17047000001490880704700007D
:101D30000000016F4FF0DE410880704770B5054626
:101D40000C462846FFF7F6FF2046FFF7EDFF70BD73
:101D5000701D00080000002034000000081D00086D
:101D6000A41D00083400002004040000181D000811
:101D7000007A030A000000000000000001020304D2
:101D80000607080900000000010203040102030421
:101D900006070809AA007800000000000000000003
:041DA000000000003F
:040000050800018965
:00000001FF
